{"abi":[{"type":"function","name":"grantAccess","inputs":[{"name":"lockId","type":"bytes32","internalType":"bytes32"},{"name":"user","type":"address","internalType":"address"}],"outputs":[],"stateMutability":"nonpayable"},{"type":"function","name":"isAuthorized","inputs":[{"name":"lockId","type":"bytes32","internalType":"bytes32"},{"name":"user","type":"address","internalType":"address"}],"outputs":[{"name":"","type":"bool","internalType":"bool"}],"stateMutability":"view"},{"type":"function","name":"registerLock","inputs":[{"name":"lockId","type":"bytes32","internalType":"bytes32"}],"outputs":[],"stateMutability":"nonpayable"},{"type":"function","name":"revokeAccess","inputs":[{"name":"lockId","type":"bytes32","internalType":"bytes32"},{"name":"user","type":"address","internalType":"address"}],"outputs":[],"stateMutability":"nonpayable"},{"type":"function","name":"unlock","inputs":[{"name":"lockId","type":"bytes32","internalType":"bytes32"}],"outputs":[],"stateMutability":"nonpayable"},{"type":"event","name":"AccessGranted","inputs":[{"name":"lockId","type":"bytes32","indexed":true,"internalType":"bytes32"},{"name":"user","type":"address","indexed":true,"internalType":"address"}],"anonymous":false},{"type":"event","name":"AccessRevoked","inputs":[{"name":"lockId","type":"bytes32","indexed":true,"internalType":"bytes32"},{"name":"user","type":"address","indexed":true,"internalType":"address"}],"anonymous":false},{"type":"event","name":"LockAccessed","inputs":[{"name":"lockId","type":"bytes32","indexed":true,"internalType":"bytes32"},{"name":"","type":"address","indexed":true,"internalType":"address"},{"name":"succeess","type":"bool","indexed":false,"internalType":"bool"}],"anonymous":false},{"type":"event","name":"LockRegistered","inputs":[{"name":"lockId","type":"bytes32","indexed":true,"internalType":"bytes32"},{"name":"owner","type":"address","indexed":true,"internalType":"address"}],"anonymous":false}],"bytecode":{"object":"0x6080604052348015600e575f5ffd5b50610a2b8061001c5f395ff3fe608060405234801561000f575f5ffd5b5060043610610055575f3560e01c806340554c3a146100595780638d53b20814610075578063956db46514610091578063e6f3802a146100c1578063ec9b5b3a146100dd575b5f5ffd5b610073600480360381019061006e91906107a9565b6100f9565b005b61008f600480360381019061008a91906107a9565b6102a7565b005b6100ab60048036038101906100a691906107a9565b610454565b6040516100b89190610801565b60405180910390f35b6100db60048036038101906100d6919061081a565b6104b8565b005b6100f760048036038101906100f2919061081a565b610627565b005b815f5f8281526020019081526020015f206002015f9054906101000a900460ff16610159576040517f08c379a00000000000000000000000000000000000000000000000000000000081526004016101509061089f565b60405180910390fd5b5f5f8281526020019081526020015f205f015f9054906101000a900473ffffffffffffffffffffffffffffffffffffffff1673ffffffffffffffffffffffffffffffffffffffff163373ffffffffffffffffffffffffffffffffffffffff16146101f8576040517f08c379a00000000000000000000000000000000000000000000000000000000081526004016101ef90610907565b60405180910390fd5b60015f5f8581526020019081526020015f206001015f8473ffffffffffffffffffffffffffffffffffffffff1673ffffffffffffffffffffffffffffffffffffffff1681526020019081526020015f205f6101000a81548160ff0219169083151502179055508173ffffffffffffffffffffffffffffffffffffffff16837ff20afd7b032307b01752ee91e3f6a4b83a5b4ab631f9ab279322fd45634382c060405160405180910390a3505050565b815f5f8281526020019081526020015f206002015f9054906101000a900460ff16610307576040517f08c379a00000000000000000000000000000000000000000000000000000000081526004016102fe9061089f565b60405180910390fd5b5f5f8281526020019081526020015f205f015f9054906101000a900473ffffffffffffffffffffffffffffffffffffffff1673ffffffffffffffffffffffffffffffffffffffff163373ffffffffffffffffffffffffffffffffffffffff16146103a6576040517f08c379a000000000000000000000000000000000000000000000000000000000815260040161039d90610907565b60405180910390fd5b5f5f5f8581526020019081526020015f206001015f8473ffffffffffffffffffffffffffffffffffffffff1673ffffffffffffffffffffffffffffffffffffffff1681526020019081526020015f205f6101000a81548160ff0219169083151502179055508173ffffffffffffffffffffffffffffffffffffffff16837fe7906b77ea165c70ad8268ce5b59b778a198edf9c1ae4118378eefdc76fce5f460405160405180910390a3505050565b5f5f5f8481526020019081526020015f206001015f8373ffffffffffffffffffffffffffffffffffffffff1673ffffffffffffffffffffffffffffffffffffffff1681526020019081526020015f205f9054906101000a900460ff16905092915050565b5f5f8281526020019081526020015f206002015f9054906101000a900460ff1615610518576040517f08c379a000000000000000000000000000000000000000000000000000000000815260040161050f9061096f565b60405180910390fd5b5f5f5f8381526020019081526020015f20905033815f015f6101000a81548173ffffffffffffffffffffffffffffffffffffffff021916908373ffffffffffffffffffffffffffffffffffffffff1602179055506001816002015f6101000a81548160ff0219169083151502179055506001816001015f3373ffffffffffffffffffffffffffffffffffffffff1673ffffffffffffffffffffffffffffffffffffffff1681526020019081526020015f205f6101000a81548160ff0219169083151502179055503373ffffffffffffffffffffffffffffffffffffffff16827f76ea30ad9784dd7733aeaf123fb0c2cb5ea9c07c0f03bada61982760891bc61f60405160405180910390a35050565b5f5f5f8381526020019081526020015f206001015f3373ffffffffffffffffffffffffffffffffffffffff1673ffffffffffffffffffffffffffffffffffffffff1681526020019081526020015f205f9054906101000a900460ff1690503373ffffffffffffffffffffffffffffffffffffffff16827fcdcb700136111b5470a55f34dbcf670cd6a53fb9e3f2ab4a7189984240907fd0836040516106cc9190610801565b60405180910390a380610714576040517f08c379a000000000000000000000000000000000000000000000000000000000815260040161070b906109d7565b60405180910390fd5b5050565b5f5ffd5b5f819050919050565b61072e8161071c565b8114610738575f5ffd5b50565b5f8135905061074981610725565b92915050565b5f73ffffffffffffffffffffffffffffffffffffffff82169050919050565b5f6107788261074f565b9050919050565b6107888161076e565b8114610792575f5ffd5b50565b5f813590506107a38161077f565b92915050565b5f5f604083850312156107bf576107be610718565b5b5f6107cc8582860161073b565b92505060206107dd85828601610795565b9150509250929050565b5f8115159050919050565b6107fb816107e7565b82525050565b5f6020820190506108145f8301846107f2565b92915050565b5f6020828403121561082f5761082e610718565b5b5f61083c8482850161073b565b91505092915050565b5f82825260208201905092915050565b7f4c6f636b206e6f7420666f756e640000000000000000000000000000000000005f82015250565b5f610889600e83610845565b915061089482610855565b602082019050919050565b5f6020820190508181035f8301526108b68161087d565b9050919050565b7f4e6f74206c6f636b206f776e65720000000000000000000000000000000000005f82015250565b5f6108f1600e83610845565b91506108fc826108bd565b602082019050919050565b5f6020820190508181035f83015261091e816108e5565b9050919050565b7f4c6f636b20616c726561647920726567697374657265640000000000000000005f82015250565b5f610959601783610845565b915061096482610925565b602082019050919050565b5f6020820190508181035f8301526109868161094d565b9050919050565b7f4163636573732064656e696564000000000000000000000000000000000000005f82015250565b5f6109c1600d83610845565b91506109cc8261098d565b602082019050919050565b5f6020820190508181035f8301526109ee816109b5565b905091905056fea264697066735822122031ca3ade65e9a471d3b2e75ac8c99e348037a8e268d3bc34f6b7285d5b38467c64736f6c634300081c0033","linkReferences":{}},"methodIdentifiers":{"grantAccess(bytes32,address)":"40554c3a","isAuthorized(bytes32,address)":"956db465","registerLock(bytes32)":"e6f3802a","revokeAccess(bytes32,address)":"8d53b208","unlock(bytes32)":"ec9b5b3a"},"id":0}